:04000000B8EF00F065
:100008005F82FACF0FF0FBCF10F0E9CF11F0EACF03
:1000180012F0E1CF13F0E2CF14F0D9CF15F0DACF18
:1000280016F0F3CF17F0F4CF18F0F6CF19F0F7CF9A
:100038001AF0F8CF1BF0F5CF1CF05FC01DF060C0C0
:100048001EF061C01FF062C020F04B80F2A457D0B0
:100058004B90F294E10ED76E7C0ED66E4F2A4D2A45
:100068004E2A080E4E18D8A430D0000E4E6E4B887B
:1000780045C001F046C002F047C003F048C004F094
:1000880049C005F04AC006F0076A086A94EC05F012
:100098000150506E000E456E000E466E000E476E03
:1000A800000E486E000E4A6E000E496E89A20DD0F1
:1000B8004BA604D0200E4F6401D04B964BB605D00A
:1000C800D20E506002D04B848992A00E4F18D8A44B
:1000D80003D04B82000E4F6E100E4D18D8A40FD0CF
:1000E800000E4D6E4BA40BD089B003D00E6A0E2AB9
:1000F80001D00E6A89500E18FE0B0E18896E9EAC40
:100108000BD09E9C4B90C4504526000E4622472299
:100118004822494A4A2AC2824BA097D720C062F097
:100128001FC061F01EC060F01DC05FF01CC0F5FF6D
:100138001BC0F8FF1AC0F7FF19C0F6FF18C0F4FF7C
:1001480017C0F3FF16C0DAFF15C0D9FF14C0E2FFCD
:1001580013C0E1FF12C0EAFF11C0E9FF10C0FBFFA6
:0C0168000FC0FAFF5F921100D1EF07F00A
:1002000000FF93FAE0CEBFB4AAA19A938D8782FB38
:10021000F2EAE2DBD4CEC7C1BCB6B1ACA7A29E9ACB
:1002200095918D8A8682FEF7F1EAE4DED8D2CCC6BB
:10023000C1BBB6B1ACA7A29D99948F8B87827E7A01
:1002400076726E6A66625E5B5754504D4946423F15
:100250003C3935322F2C292623201D1A1815120F50
:100260000D0A0705020A0A0A0A57656C636F6D6575
:1002700020746F2066696C616D656E7420647269AC
:1002800065720A007265616368656420445554595B
:100290005F4359434C455F4F464600496E69746958
:1002A000616C697A696E672073656E736F72730A29
:1002B000007265616368656420445554595F435911
:1002C000434C455F4F4E004D616E65206C6F6F7003
:1002D0000A00493A20004F3A2000B02000252000B3
:0102E000001D
:1002E200AC0E3D6E330E3E6E000E3F6E030E276E59
:1002F2003BC0D9FF3CC0DAFFDF50FDEC06F03BC04B
:10030200D9FF3CC0DAFFDF50E0EC07F00001806F5C
:1003120080BFF5D7060E2F6E3BC0D9FF3CC0DAFF77
:10032200DF50D9EC06F03E500001966F976B986B48
:10033200996B98C099F097C098F096C097F0966B19
:100342003F509613040ED8909637973798379937BF
:10035200E82EF9D740C080F0803B0F0E8017805105
:10036200961396C021F097C022F098C023F099C04E
:1003720024F0640E256E000E266E000E276E000E0F
:10038200286E85EC06F021C02DF022C02EF023C08D
:100392002FF024C030F0000E316E100E326E000EBF
:1003A200336E000E346E86EC04F020EE01F03B500A
:1003B200D9263C50DA222DC0DEFF2EC0DDFF40C020
:1003C20080F00F0E000180178051966F976B986B2B
:1003D200996B98C099F097C098F096C097F0966B79
:1003E2004150961398C099F097C098F096C097F034
:1003F200966B42509613000E806FCE0E816F96C0A0
:1004020021F097C022F098C023F099C024F0C80EC2
:10041200256E000E266E000E276E000E286E85ECED
:1004220006F021C02DF022C02EF023C02FF024C0F0
:1004320030F0000E316E100E326E000E336E000E72
:10044200346E86EC04F0000180512D2681512E225B
:1004520020EE03F03B50D9263C50DA222DC0DEFFBD
:100462002EC0DDFFAB0E8A6F110E8B6F000E8C6FEC
:10047200000E8D6F800E8E6FF30E8F6F000E906FD9
:10048200000E916F20EE01F03B50D9263C50DA224B
:10049200DECF21F0DDCF22F0010E246E000E236E9E
:1004A20052EC05F02150D5EC05F021C080F022C0BD
:1004B20081F0000E000181BFFF0E826F836F20EE7C
:1004C20003F03B50D9263C50DA22DECF21F0DDCFBB
:1004D20022F0000E22BEFF0E236E246E8AC025F08B
:1004E2008BC026F08CC027F08DC028F085EC06F07A
:1004F20021C02DF022C02EF023C02FF024C030F0F6
:1005020020EE03F03B50D9263C50DA22DECF84F0B5
:10051200DDCF85F084C086F085C087F0000E000133
:1005220087BFFF0E886F896F8E518625316E8F517E
:100532008721326E90518821336E91518921346E18
:1005420086EC04F02D5000018025926F2E508121FF
:10055200936F2F508221946F30508321956F8EC0FC
:1005620021F08FC022F090C023F091C024F092C0FD
:1005720025F093C026F094C027F095C028F085ECB2
:1005820006F021C02DF022C02EF023C02FF024C08F
:1005920030F092C080F093C081F094C082F095C098
:1005A20083F00001801F811F821F831F802B000E9A
:1005B2008123822383238A518025316E8B518121AD
:1005C200326E8C518221336E8D518321346E86ECD2
:1005D20004F020EE05F03B50D9263C50DA222DC023
:1005E200DEFF2EC0DDFF1200400ED36EFB0EC16E89
:1005F200090EC26E3E0EC06E9D8CC282000E4B6E04
:10060200000E4F6E000E4E6E000E4D6E000E456EC9
:10061200000E466E000E476E000E486E000E4A6EC9
:10062200000E496E240EAC6E800EAB6E080EAA6EE2
:100632001A0EAF6E928E928C93869384899E899CB9
:100642008A968A94899292928996929689909290A9
:10065200880ED56EE10ED76E7C0ED66EF294F28ABB
:10066200650E226E020E236E3EEC07F09B0E226E8A
:10067200020E236E3EEC07F0510E336E000E346E06
:10068200000E356E1FEC07F0580E336E000E346EFE
:10069200010E356E1FEC07F0C70E226E020E236E9E
:1006A2003EEC07F0F28EF28C04004BA290D04B92FB
:1006B200580E3B6E000E3C6E71EC01F0510E3B6E1B
:1006C200000E3C6E71EC01F0D20E226E020E236E11
:1006D2003EEC07F0580E366E000E376E4EEC06F00A
:1006E200D60E226E020E236E3EEC07F0510E366ECF
:1006F200000E376E4EEC06F054505B5C5C50800A84
:1007020000019F6F5550800A9F59D8B002D0899638
:1007120001D0898689B22ED04BAA0BD04C2A050E65
:100722004C6407D04B9A840E226E020E236E3EEC6E
:1007320007F0000E00019F6F020EA06F20EE56F030
:10074200DECFA1F0DDCFA2F09F51A127A051A223BD
:100752005D50A15DA251800AA36F5E50800AA35929
:10076200D8A04BB432D04BBA30D089824B86000E1F
:100772004C6E2BD089A229D04C2A000E9F6F010EFD
:10078200A06F20EE56F0DECFA1F0DDCFA2F09F5198
:10079200A127A051A223A1515D5C5E50800AA36FE4
:1007A200A251800AA359D8A003D0170E4C640DD0D1
:1007B2008992170E4C6409D04B8A000E4C6EB10E12
:1007C200226E020E236E3EEC07F0EEEC07F04BA811
:1007D2006BD74B98895068D72AAE07D02D0EE8EC1C
:1007E20007F0296C2A1ED8B02A2A29C021F02AC073
:1007F20022F0010E246E000E236E52EC05F0215001
:10080200306E000E316E000E356E640E346E2FD0D7
:1008120030502B6E2C6A34502B5C35502C58D8B08B
:1008220003D03150D8B415D030C021F0226A34C080
:1008320023F035C024F0B0EC06F021502F6E2F507B
:10084200300FE8EC07F02F503402F350305E010E07
:10085200316E34C021F035C022F0000E246E0A0E33
:10086200236EB0EC06F021C034F022C035F03550D2
:10087200CFE1020E345CD8B0CBD7300EE8EC07F0F3
:100882002E0EE8EC07F02950640DF3CF21F0F4CFDF
:1008920022F0010E246E000E236E52EC05F021C0F0
:1008A20032F022C033F0010E316E335007E10A0EEE
:1008B200325CD8B003D03150D8B422D032C021F04B
:1008C20033C022F0000E246E0A0E236EB0EC06F046
:1008D20021C02DF022C02EF02D50300FE8EC07F091
:1008E2002DC021F02EC022F0000E246E0A0E236EBF
:1008F2006DEC07F02150325E2250335A010E316EF8
:100902003250300FE8EC07F01200000E366E34AEB3
:100912000AD0341E331E321E316C000E32223322B4
:100922003422010E366E30AE0AD0301E2F1E2E1E1D
:100932002D6C000E2E222F223022010E361A000EAE
:10094200376E000E386E000E396E000E3A6E315060
:10095200321033103410D8B42AD0010E356E06D0BE
:10096200D8903136323633363436352A34AEF8D76B
:10097200D8903736383639363A3631502D5C3250C7
:100982002E5833502F5834503058D8A009D03150F7
:100992002D5E32502E5A33502F5A3450305A3780EF
:1009A200D8903432333232323132352EE1D73650AA
:1009B200D8B408D03A1E391E381E376C000E3822C1
:1009C20039223A2237C02DF038C02EF039C02FF02C
:1009D2003AC030F012002E6E000E2D6E5DD0000E69
:1009E2002B6E010E216E2E5091EC07F0000E2C6E34
:1009F200070E2C6401D018D0D8902B36010E216E30
:100A02002E50A1EC07F02E50C1EC07F00009D8B42B
:100A1200FAD72E50B1EC07F02B12000E216E2E5099
:100A2200A1EC07F02C2AE4D72D50010D3D0EF32442
:100A3200D96E000EF420DA6E2BC0DFFFFF0E246E9B
:100A4200FF0E256E2350266E276A24502626255037
:100A520027222D50286E296A2650285C2950800AA8
:100A62002A6E2750800A2A58D8A006D0010E216E7D
:100A72002E5091EC07F005D0000E216E2E5091EC15
:100A820007F0010E216E2E50A1EC07F0000E216E30
:100A92002E50A1EC07F02D2A23502D5CD8B0120065
:100AA2009ED7000E266E24AE06D0236C241ED8B02C
:100AB200242A010E266E22AE06D0216C221ED8B048
:100AC200222A010E261A000E286E000E276E2350CF
:100AD2002410D8B41CD0010E256E04D0D890233631
:100AE2002436252A24AEFAD7D89027362836235022
:100AF200215C24502258D8A005D02350215E2450D6
:100B0200225A2780D89024322332252EEDD7265020
:100B1200D8B404D0276C281ED8B0282A27C021F0C8
:100B220028C022F01200000E096E000E0A6E000E9E
:100B32000B6E000E0C6E0550061007100810D8B48C
:100B42002AD0010E0D6E06D0D8900536063607362D
:100B520008360D2A08AEF8D7D89009360A360B3671
:100B62000C360550015C06500258075003580850D5
:100B72000458D8A009D00550015E0650025A075009
:100B8200035A0850045A0980D890083207320632B4
:100B920005320D2EE1D709C001F00AC002F00BC0E8
:100BA20003F00CC004F01200256E2550010D010E59
:100BB200F324F66E020EF420F76E0800F550236E51
:100BC200246A231E241E234A242A23C026F024C07A
:100BD20027F0020E256008D026C023F027C024F09B
:100BE200D8902336243607D00E0E25600FD026C0AB
:100BF20023F027C024F0D89023362436D890233609
:100C0200243623C021F024C022F01200250E2560D4
:100C120006D0D8902634216E2734226E120026C0C8
:100C220021F027C022F01200266E000E256E000E63
:100C3200256E070E256401D01BD023AE06D0010E0F
:100C4200216E265091EC07F005D0000E216E265041
:100C520091EC07F0010E216E2650A1EC07F0000E78
:100C6200216E2650A1EC07F0D8902336252AE1D731
:100C7200010E216E2650A1EC07F02650C1EC07F0C0
:100C82000009D8B4FAD72650B1EC07F0246E000E52
:100C9200216E2650A1EC07F0120020EE03F0365030
:100CA200D9263750DA22DECF29F0DDCF2AF0EDEC5B
:100CB20003F0DA0E226E020E236E3EEC07F020EEF7
:100CC20001F03650D9263750DA22DECF29F0DDCFB7
:100CD2002AF0EDEC03F0DD0E226E020E236E3EECE6
:100CE20007F020EE05F03650D9263750DA22DECF53
:100CF20029F0DDCF2AF0EDEC03F0DA0E226E020EBF
:100D0200236E3EEC07F01200000E296E000E2A6ED2
:100D1200000E2B6E000E2C6E21A008D02550292625
:100D220026502A2227502B2228502C22D8902536B2
:100D3200263627362836D8902432233222322132E0
:100D42002150221023102410D8A4E6D729C021F064
:100D52002AC022F02BC023F02CC024F01200000E77
:100D6200266E000E256E23502410D8B41CD0010E1E
:100D7200276E04D0D89023362436272A24AEFAD7F9
:100D8200D890253626362350215C24502258D8A0EC
:100D920005D02350215E2450225A2580D890243237
:100DA2002332272EEDD725C021F026C022F01200D3
:100DB200316E000E306E0BD03050010D3D0EF3241B
:100DC200D96E000EF420DA6EFF0EDF6E302A2F503D
:100DD200305CD8A0F1D7315057EC07F0710E236E7A
:100DE200315015EC06F02FC023F03150ECEC04F03A
:100DF200315080EC07F01200296E295057EC07F0B1
:100E0200700E236E295015EC06F0000E286E0ED0DF
:100E12002850010D3D0EF324D96E000EF420DA6E37
:100E2200DF50236E295015EC06F0282A2750285C43
:100E3200D8A0EED7295080EC07F0120033C0D9FFBA
:100E420034C0DAFF35C0DFFFBA0E3D6E010E276EE9
:100E52003550FDEC06F0E10E3D6E080E3E6E000EC2
:100E62003F6E030E276E3550FDEC06F03550E0EC78
:100E720007F0366E36AE1200F9D722C024F023C036
:100E820025F00AD024C0F6FF25C0F7FF0800F55070
:100E9200E8EC07F0244A252A24C0F6FF25C0F7FF14
:100EA2000800F5500009D8B41200ECD7236E010EE9
:100EB200216E2350A1EC07F0010E216E235091EC1C
:100EC20007F0000E216E235091EC07F0000E216E08
:100ED2002350A1EC07F0120021502302F3CF25F09A
:100EE200F4CF26F021502402F3502626225023026A
:100EF200F350262625C021F026C022F01200236ED0
:100F0200000E216E235091EC07F0010E216E23504A
:100F1200A1EC07F0010E216E235091EC07F01200B4
:100F2200226E2250D8A406D021B002D0939401D0D0
:100F32009384120021B002D0929C01D0928C1200B4
:100F4200226E2250D8A406D021B002D0939601D0AE
:100F52009386120021B002D0929E01D0928E12008E
:100F6200216E2150D8A406D081A402D0010E120015
:100F7200000E120080AC02D0010E1200000E120010
:100F8200216E2150D8A406D081A602D0010E1200F3
:100F9200000E120080AE02D0010E1200000E1200EE
:100FA20000EE3DF0220EEE6AE806FDE15F905F92F0
:100FB200000EF86E020EF76E0001F5EF02F0326ECF
:100FC200010E2F6E3250D9EC06F03D501200216E08
:100FD2009EA8FED721C0ADFF12000A0EE8EC07F072
:020FE2001200FB
:020000040020DA
:08000000FFFFFFFFFFFFFFFF00
:020000040030CA
:0E000000FFC80A1FFF8081FF03C003E003401A
:00000001FF
